:020000040800F2
:1000000000280020F9120008651200086B12000891
:1000100071120008771200087D120008000000002D
:100020000000000000000000000000008312000833
:100030008F120008000000009B120008A7120008A1
:100040004113000841130008411300084113000840
:100050004113000841130008411300084113000830
:100060004113000841130008411300084113000820
:100070004113000841130008411300084113000810
:100080004113000841130008411300084113000800
:1000900041130008411300084113000841130008F0
:1000A00041130008411300084113000841130008E0
:1000B000B5120008411300080000000041130008B9
:1000C0004113000800000000000000004113000878
:1000D0000000000041130008411300080000000068
:1000E00041130008411300084113000800000000FC
:1000F0000000000000000000000000000000000000
:0C01000000000000000000005FF808F1A3
:10010C0010B5054C237833B9044B13B10448AFF345
:10011C0000800123237010BD30000020000000007F
:10012C009829000808B5034B1BB103490348AFF3EA
:10013C00008008BD00000000340000209829000851
:10014C0080B500AF994B1B68032B00F2888001A28D
:10015C0052F823F07101000893010008DB0100083C
:10016C0023020008914B01221A60914B1B684FF43B
:10017C007A7202FB03F3184600F074FF8C4B1B6879
:10018C008C4A136072E0002220218B4801F0D5FBD1
:10019C0001228021884801F0D0FB012240218648B1
:1001AC0001F0CBFB854B1B68012B5AD17F4B0222F4
:1001BC001A60834B1B687F4A1360814B1B684FF49A
:1001CC007A7202FB03F3184600F04CFF49E001225F
:1001DC002021794801F0B1FB00228021764801F002
:1001EC00ACFB01224021744801F0A7FB734B1B6848
:1001FC00012B38D16D4B03221A60724B1B686D4A70
:10020C001360704B1B684FF47A7202FB03F31846B1
:10021C0000F028FF27E001222021674801F08DFB28
:10022C0001228021644801F088FB002240216248B1
:10023C0001F083FB614B1B68012B16D15B4B012238
:10024C001A605B4B1B685B4A1360594B1B684FF47D
:10025C007A7202FB03F3184600F004FF05E000BFBE
:10026C0004E000BF02E000BF00E000BF564B1B687B
:10027C00032B00F2918001A252F823F0990200089E
:10028C00BB02000809030008570300084E4B02226A
:10029C001A604B4B1B684D4A1360494B1B684FF45B
:1002AC007A7202FB03F3184600F0F6FE7BE00022A4
:1002BC004FF48071404801F040FB01224FF4806103
:1002CC003D4801F03AFB01224FF400713A4801F02D
:1002DC0034FB3F4B1B68012B60D13B4B02221A6055
:1002EC00374B1B68394A1360354B1B684FF47A72D5
:1002FC0002FB03F3184600F0CFFE4FE001224FF44F
:10030C0080712D4801F019FB00224FF480612A48BE
:10031C0001F013FB01224FF40071274801F00DFB93
:10032C002B4B1B68012B3BD1274B03221A60254B0F
:10033C001B68264A1360234B1B684FF47A7202FB2E
:10034C0003F3184600F0A8FE2AE001224FF4807156
:10035C00194801F0F2FA01224FF48061164801F0BD
:10036C00ECFA00224FF40071134801F0E6FA184B36
:10037C001B68012B16D1144B01221A600C4B1B6805
:10038C00124A13600A4B1B684FF47A7202FB03F398
:10039C00184600F081FE05E000BF04E000BF02E05B
:1003AC0000BF00E000BF00BF80BD00BF4C000020BC
:1003BC001400002058000020000801408400002098
:1003CC00180000201C000020500000205C000020C1
:1003DC008C00002080B582B000AF78607B68002B69
:1003EC0024D100220821C74801F0A7FA00221021CD
:1003FC00C44801F0A2FA00222021C24801F09DFA63
:10040C0000224021BF4801F098FA00228021BD480B
:10041C0001F093FA00224FF48071BA4801F08DFA82
:10042C0001224FF40071B74801F087FA7B68012B69
:10043C0024D101220821B34801F07FFA00221021B7
:10044C00B04801F07AFA00222021AE4801F075FA8A
:10045C0001224021AB4801F070FA01228021A94809
:10046C0001F06BFA01224FF48071A64801F065FA95
:10047C0001224FF40071A34801F05FFA7B68022B54
:10048C0024D1002208219F4801F057FA00221021A4
:10049C009C4801F052FA012220219A4801F04DFAB1
:1004AC0000224021974801F048FA0022802195480B
:1004BC0001F043FA01224FF48071924801F03DFAA9
:1004CC0000224FF400718F4801F037FA7B68032B40
:1004DC0024D1002208218B4801F02FFA0022102190
:1004EC00884801F02AFA00222021864801F025FADA
:1004FC0000224021834801F020FA0122802181480A
:10050C0001F01BFA01224FF480717E4801F015FABC
:10051C0000224FF400717B4801F00FFA7B68042B2A
:10052C0024D101220821774801F007FA002210217A
:10053C00744801F002FA00222021724801F0FDF902
:10054C00012240216F4801F0F8F9012280216D4809
:10055C0001F0F3F900224FF480716A4801F0EDF9D3
:10056C0000224FF40071674801F0E7F97B68052B16
:10057C0024D100220821634801F0DFF90122102167
:10058C00604801F0DAF9002220215E4801F0D5F92B
:10059C00002240215B4801F0D0F90122802159480A
:1005AC0001F0CBF900224FF48071564801F0C5F9E7
:1005BC0000224FF40071534801F0BFF97B68062B01
:1005CC0024D1002208214F4801F0B7F90122102153
:1005DC004C4801F0B2F9002220214A4801F0ADF953
:1005EC0000224021474801F0A8F90022802145480B
:1005FC0001F0A3F900224FF48071424801F09DF9FB
:10060C0000224FF400713F4801F097F97B68072BEB
:10061C0024D1002208213B4801F08FF9002210213F
:10062C00384801F08AF900222021364801F085F97A
:10063C0001224021334801F080F901228021314808
:10064C0001F07BF901224FF480712E4801F075F90D
:10065C0001224FF400712B4801F06FF97B68082BD5
:10066C0024D100220821274801F067F9002210212B
:10067C00244801F062F900222021224801F05DF9A2
:10068C00002240211F4801F058F9002280211D480A
:10069C0001F053F900224FF480711A4801F04DF922
:1006AC0000224FF40071174801F047F97B68092BC1
:1006BC0024D100220821134801F03FF90022102117
:1006CC00104801F03AF9002220210E4801F035F9CA
:1006DC00002240210B4801F030F901228021094809
:1006EC0001F02BF900224FF48071064801F025F936
:1006FC0000224FF40071034801F01FF900BF0837C6
:10070C00BD4680BD000C014080B582B000AF786062
:10071C007B68002B15D100220221314801F00DF924
:10072C00012204212E4801F008F901224FF4006146
:10073C002B4801F002F901224FF48051284801F0B6
:10074C00FCF87B68012B15D101220221244801F011
:10075C00F4F800220421224801F0EFF801224FF4B2
:10076C0000611F4801F0E9F801224FF480511C4848
:10077C0001F0E3F87B68022B15D101220221184805
:10078C0001F0DBF801220421154801F0D6F8002213
:10079C004FF40061124801F0D0F801224FF480515F
:1007AC000F4801F0CAF87B68032B15D101220221F6
:1007BC000B4801F0C2F801220421094801F0BDF8F0
:1007CC0001224FF40061064801F0B7F800224FF403
:1007DC008051034801F0B1F800BF0837BD4680BD19
:1007EC000008014080B582B000AF78607B68032BB5
:1007FC002ED801A252F823F015080008270800088B
:10080C00390800084B0800087868FFF77DFF134B88
:10081C001B681846FFF7DEFD1BE07868FFF774FFD6
:10082C000E4B5B681846FFF7D5FD12E07868FFF7B2
:10083C006BFF0A4B9B681846FFF7CCFD09E0786804
:10084C00FFF762FF054BDB681846FFF7C3FD00E0BE
:10085C0000BF00BF0837BD4680BD00BF00000020B0
:10086C0080B483B000AF786039607B68184A82FB33
:10087C0003129210DB17D31A164A13607968144BC3
:10088C0083FB01239A10CB17D21A13469B001344F7
:10089C005B00CA1A0F4B5A603B680D4A82FB03126D
:1008AC009210DB17D31A0B4A93603968084B83FB01
:1008BC0001239A10CB17D21A13469B0013445B00EA
:1008CC00CA1A044BDA6000BF0C37BD4680BC7047B7
:1008DC00676666660000002080B500AFA34B1B68FE
:1008EC00042B00F2C98101A252F823F00D09000873
:1008FC003F090008C30900089D0A0008A50B000861
:10090C00FA2000F0E3FB4FF47A7000F091FB974B68
:10091C0001221A60964B1B68964A1360964B1B6813
:10092C00964A1360964B00221A60964B00221A606E
:10093C00A2E1FFF705FC8F4B1B68904A1268114629
:10094C001846FFF78DFF904B1B681846FFF74AFFC0
:10095C008E4B1B68012B0DD1864B1B68013B854AC6
:10096C001360864B1B68013B844A13604FF47A700A
:10097C0000F05EFB864B1B68012B0ED1824B1B6873
:10098C000133814A1360804B1B68032B02DD7E4BC5
:10099C0000221A60FA2000F099FB002000F028FADF
:1009AC000346002B00F06181744B01221A606F4BDF
:1009BC0002221A6059E16D4B1B686E4A13606D4B35
:1009CC001B686E4A126811461846FFF749FF6E4BBA
:1009DC001B681846FFF706FF012280216D4800F0C6
:1009EC00ACFF012240216B4800F0A7FF01224FF41D
:1009FC008061684800F0A1FF01224FF40071654846
:100A0C0000F09BFF624B1B68012B17D12021614822
:100A1C0000F0ABFF4FF480715E4800F0A6FF5A4B1C
:100A2C001B680133584A1360574B1B68032B02DDBC
:100A3C00554B00221A60FA2000F048FB002000F011
:100A4C00D7F90346002B05D04C4B01221A60474BBB
:100A5C0003221A60012000F0CBF90346002B0BD0C7
:100A6C00464B1B680133454A1360444B1B68632B90
:100A7C0002DD424B01221A60022000F0B9F9034654
:100A8C00002B00F0F4803D4B1B68394A1360EEE0FC
:100A9C00364B1B68374A1360364B1B68374A126853
:100AAC0011461846FFF7DCFE374B1B681846FFF75C
:100ABC0099FE01222021374800F03FFF01224021FE
:100ACC00344800F03AFF01224FF48071314800F0B5
:100ADC0034FF01224FF400712E4800F02EFF2C4BF6
:100AEC001B68012B17D180212A4800F03EFF4FF4E0
:100AFC008061284800F039FF234B1B680133224AE0
:100B0C001360214B1B68032B02DD1F4B00221A6064
:100B1C00FA2000F0DBFA002000F06AF90346002B03
:100B2C0005D0164B01221A60104B04221A600120CA
:100B3C0000F05EF90346002B0BD0104B1B68013301
:100B4C000E4A13600D4B1B68632B02DD0B4B01220D
:100B5C001A60022000F04CF90346002B00F089804B
:100B6C00064B1B68044A136083E000BF540000204E
:100B7C001400002058000020180000205C00002009
:100B8C004C00002050000020600000207C00002061
:100B9C009400002000080140384B1B68384A136051
:100BAC00374B1B68374A126811461846FFF758FE38
:100BBC00354B1B681846FFF715FE012220213348E0
:100BCC0000F0BBFE01228021304800F0B6FE01226D
:100BDC004FF480712D4800F0B0FE01224FF480617B
:100BEC002A4800F0AAFE2A4B1B68012B17D1402182
:100BFC00264800F0BAFE4FF40071244800F0B5FE10
:100C0C00214B1B680133204A13601F4B1B68032BBD
:100C1C0002DD1D4B00221A60FA2000F057FA00206A
:100C2C0000F0E6F80346002B02D0144B00221A60A9
:100C3C00012000F0DDF80346002B0BD0114B1B6894
:100C4C000133104A13600F4B1B68632B02DD0D4BF5
:100C5C0001221A60022000F0CBF80346002B0AD0C8
:100C6C00084B1B680B4A136005E000BF04E000BF93
:100C7C0002E000BF00E000BF00BF80BD54000020B8
:100C8C00580000205C00002060000020000801409B
:100C9C00940000201C00002080B582B000AF00231F
:100CAC007B608BE04A4A7B6813441978494A7B681D
:100CBC0013440A461A70484A7B6813441978444A0C
:100CCC007B6813440A461A707B68002B0AD10121F9
:100CDC00424800F01BFE034619463F4A7B6813440A
:100CEC000A461A707B68012B0AD102213B4800F09E
:100CFC000DFE03461946384A7B6813440A461A709F
:100D0C007B68022B0AD10421344800F0FFFD034616
:100D1C001946314A7B6813440A461A702C4A7B6880
:100D2C0013441A782B497B680B441B789A4242D1A6
:100D3C00274A7B6813441A7827497B680B441B7835
:100D4C009A4238D1264A7B6813441A7821497B6829
:100D5C000B441B789A4217D01E4A7B6813441978AF
:100D6C001F4A7B6813440A461A701D4A7B68134459
:100D7C001B78002B1FD11B4B64221A601A4A7B680C
:100D8C00134401221A7016E0164B1B68013B154ADE
:100D9C001360144B1B68002B0DD1114A7B68134454
:100DAC001B78002B04D1114A7B68134401221A7062
:100DBC000C4B64221A607B6801337B607B68022BCE
:100DCC007FF770AF00BF00BF0837BD4680BD00BFC6
:100DDC006C0000207000002068000020000C014016
:100DEC006400002020000020780000207400002007
:100DFC0080B483B000AF78607B68022B01D90023EC
:100E0C000DE0094A7B6813441B78012B06D1064A76
:100E1C007B68134400221A70012300E0002318465B
:100E2C000C37BD4680BC70477800002080B500AF01
:100E3C0000F082FA00F00CF800F092F800F044F8A0
:100E4C00024801F0E3F9FFF747FDFCE79C000020A6
:100E5C0080B590B000AF07F1180328220021184686
:100E6C0001F08CFD3B1D00221A605A609A60DA601A
:100E7C001A610223BB610123BB621023FB620023B6
:100E8C007B6307F11803184600F088FD0346002B1E
:100E9C0001D000F0C7F80F237B600023BB60002358
:100EAC00FB6000233B6100237B613B1D0021184646
:100EBC0000F0F4FF0346002B01D000F0B3F800BFA4
:100ECC004037BD4680BD000080B586B000AF07F14D
:100EDC00080300221A605A609A60DA603B460022CE
:100EEC001A605A601D4B4FF080421A601B4B41F642
:100EFC003F725A60194B00229A60184B0922DA6033
:100F0C00164B00221A61154B00229A61134801F00E
:100F1C002DF90346002B01D000F084F84FF48053D8
:100F2C00BB6007F1080319460C4801F0C3FA0346ED
:100F3C00002B01D000F076F800233B6000237B608F
:100F4C003B461946054801F08BFC0346002B01D0AB
:100F5C0000F068F800BF1837BD4680BD9C0000202B
:100F6C0080B586B000AF07F1080300221A605A6002
:100F7C009A60DA60284B9B69274A43F0040393611B
:100F8C00254B9B6903F004037B607B68224B9B69B8
:100F9C00214A43F0080393611F4B9B6903F008033C
:100FAC003B603B68002241F6E6711C4800F0C5FC32
:100FBC0000224FF47E711A4800F0BFFC41F6E67334
:100FCC00BB600123FB6000233B6102237B6107F1C3
:100FDC0008031946114800F01FFB0723BB600023D0
:100FEC00FB6000233B6107F1080319460C4800F035
:100FFC0013FB4FF47E73BB600123FB6000233B614A
:10100C0002237B6107F108031946054800F004FB35
:10101C0000BF1837BD4680BD0010024000080140DB
:10102C00000C014080B400AF72B600BFFEE70000B8
:10103C0080B483B000AF7860074B1B687A6892FB72
:10104C00F3F3064A1360064B00221A6000BF0C37FC
:10105C00BD4680BC704700BF1000002080000020FF
:10106C007C00002080B483B000AF7860074B1B6815
:10107C007A6892FBF3F3064A1360064B00221A605F
:10108C0000BF0C37BD4680BC704700BF100000206D
:10109C00880000208400002080B483B000AF78600A
:1010AC00074B1B687A6892FBF3F3064A1360064BF6
:1010BC0000221A6000BF0C37BD4680BC704700BFD1
:1010CC0010000020900000208C00002080B483B021
:1010DC0000AF7860074B1B687A6892FBF3F3064A03
:1010EC001360064B00221A6000BF0C37BD4680BC53
:1010FC00704700BF100000209800002094000020D2
:10110C0080B400AF214B1B68002B0BDD1F4B1B6801
:10111C00013B1E4A13601D4B1B68002B02DC1C4B51
:10112C0001221A601B4B1B68002B0BDD194B1B6833
:10113C00013B184A1360174B1B68002B02DC164B43
:10114C0001221A60154B1B68002B0BDD134B1B681F
:10115C00013B124A1360114B1B68002B02DC104B35
:10116C0001221A600F4B1B68002B0BDD0D4B1B680B
:10117C00013B0C4A13600B4B1B68002B02DC0A4B27
:10118C0001221A6000BFBD4680BC70478000002061
:10119C007C000020880000208400002090000020AB
:1011AC008C000020980000209400002080B485B0B2
:1011BC0000AF154B9B69144A43F001039361124B2A
:1011CC009B6903F00103BB60BB680F4BDB690E4AE4
:1011DC0043F08053D3610C4BDB6903F080537B608D
:1011EC007B680A4B5B68FB60FB6823F0E063FB6089
:1011FC00FB6843F08063FB60044AFB68536000BFEC
:10120C001437BD4680BC70470010024000000140FE
:10121C0080B584B000AF78607B681B68B3F1804FF9
:10122C0013D10C4BDB690B4A43F00103D361094B1F
:10123C00DB6903F00103FB60FB68002200211C202A
:10124C0000F0B3F91C2000F0CCF900BF1037BD46FC
:10125C0080BD00BF0010024080B400AFFEE780B438
:10126C0000AFFEE780B400AFFEE780B400AFFEE74E
:10127C0080B400AFFEE780B400AF00BFBD4680BCB9
:10128C00704780B400AF00BFBD4680BC704780B4CF
:10129C0000AF00BFBD4680BC704780B500AF00F00A
:1012AC0091F800BF80BD000080B500AF024800F08F
:1012BC00F9FF00BF80BD00BF9C00002080B400AFD0
:1012CC0000BFBD4680BC704780B582B000AF78606F
:1012DC007B681B68B3F1804F03D1FFF711FFFFF759
:1012EC00DBFC00BF0837BD4680BD00000C480D4933
:1012FC000D4A002302E0D458C4500433C4188C4265
:10130C00F9D30A4A0A4C002301E013600432A242CA
:10131C00FBD3FFF7D3FF01F00DFBFFF787FD704701
:10132C000000002030000020D829000830000020E8
:10133C00E8000020FEE7000080B500AF084B1B68FA
:10134C00074A43F010031360032000F023F90F2029
:10135C0000F008F8FFF72AFF0023184680BD00BFF5
:10136C000020024080B582B000AF7860124B1A6842
:10137C00124B1B7819464FF47A73B3FBF1F3B2FBA3
:10138C00F3F3184600F03BF90346002B01D0012380
:10139C000EE07B680F2B0AD8002279684FF0FF30E3
:1013AC0000F003F9064A7B681360002300E0012378
:1013BC0018460837BD4680BD240000202C000020B4
:1013CC002800002080B400AF054B1B781A46054B53
:1013DC001B681344034A136000BFBD4680BC7047B2
:1013EC002C000020E400002080B400AF024B1B68EE
:1013FC001846BD4680BC7047E400002080B485B020
:10140C0000AF78607B6803F00703FB600C4BDB6874
:10141C00BB60BA684FF6FF031340BB60FB681A024F
:10142C00BB68134343F0BF6343F40033BB60044A0F
:10143C00BB68D36000BF1437BD4680BC704700BF8B
:10144C0000ED00E080B400AF044BDB681B0A03F036
:10145C0007031846BD4680BC704700BF00ED00E096
:10146C0080B483B000AF0346FB7197F90730002BB3
:10147C000BDBFB7903F01F02064997F907305B0978
:10148C00012000FA02F241F8232000BF0C37BD46C0
:10149C0080BC704700E100E080B483B000AF03462D
:1014AC003960FB7197F90730002B0ADB3B68DAB225
:1014BC000C4997F907301201D2B20B4483F8002380
:1014CC000AE03B68DAB20849FB7903F00F03043BEE
:1014DC001201D2B20B441A7600BF0C37BD4680BC49
:1014EC00704700BF00E100E000ED00E080B489B07F
:1014FC0000AFF860B9607A60FB6803F00703FB612A
:10150C00FB69C3F10703042B28BF0423BB61FB69F0
:10151C000433062B02D9FB69033B00E000237B61FB
:10152C004FF0FF32BB6902FA03F3DA43BB681A408F
:10153C007B699A404FF0FF317B6901FA03F3D94381
:10154C007B680B40134318462437BD4680BC70475C
:10155C0080B582B000AF78607B68013BB3F1807FCF
:10156C0001D301230FE00A4A7B68013B53600F2132
:10157C004FF0FF30FFF790FF054B00229A60044BB1
:10158C0007221A60002318460837BD4680BD00BFED
:10159C0010E000E080B582B000AF78607868FFF7AB
:1015AC002DFF00BF0837BD4680BD80B586B000AFAB
:1015BC000346B9607A60FB7300237B61FFF742FF3F
:1015CC0078617A68B9687869FFF790FF024697F9F5
:1015DC000F3011461846FFF75FFF00BF1837BD46A6
:1015EC0080BD80B582B000AF0346FB7197F9073020
:1015FC001846FFF735FF00BF0837BD4680BD80B5E4
:10160C0082B000AF78607868FFF7A2FF03461846F7
:10161C000837BD4680BD000080B48BB000AF786049
:10162C00396000237B6200233B6248E101227B6A24
:10163C0002FA03F3FB613B681B68FA691340BB6158
:10164C00BA69FB699A4240F037813B685B68A34AF0
:10165C0093425ED0A14A934275D8A14A934258D086
:10166C009F4A93426FD89F4A934252D09D4A9342CD
:10167C0069D89D4A93424CD09B4A934263D89B4A6B
:10168C00934246D0994A93425DD8122B2AD8122BFA
:10169C0059D801A252F823F01F170008F9160008B8
:1016AC000B1700084D1700085317000853170008B4
:1016BC005317000853170008531700085317000856
:1016CC005317000853170008531700085317000846
:1016DC005317000853170008531700080117000888
:1016EC0015170008824A934213D02CE03B68DB6844
:1016FC003B6229E03B68DB6804333B6224E03B68D7
:10170C00DB6808333B621FE03B68DB680C333B62F1
:10171C001AE03B689B68002B02D104233B6213E068
:10172C003B689B68012B05D108233B627B68FA69F7
:10173C001A6109E008233B627B68FA695A6103E08D
:10174C0000233B6200E000BFBB69FF2B01D87B6824
:10175C0001E07B6804337B61BB69FF2B02D87B6A99
:10176C009B0002E07B6A083B9B003B617B691A682B
:10177C000F213B6901FA03F3DB431A40396A3B69D9
:10178C0001FA03F31A437B691A603B685B6803F048
:10179C008053002B00F09080564B9B69554A43F0C8
:1017AC0001039361534B9B6903F00103BB60BB685E
:1017BC00514A7B6A9B08023352F82330FB607B6AE8
:1017CC0003F003039B000F2202FA03F3DB43FA68D6
:1017DC001340FB607B68494A93420DD07B68484AB2
:1017EC00934207D07B68474A934201D1022304E01D
:1017FC00032302E0012300E000237A6A02F00302D3
:10180C0092009340FA681343FB603B497B6A9B0848
:10181C000233FA6841F823203B685B6803F4803399
:10182C00002B06D0384B1A683749BB6913430B6041
:10183C0006E0354B1A68BB69DB43334913400B6038
:10184C003B685B6803F40033002B06D02E4B5A68C0
:10185C002D49BB6913434B6006E02B4B5A68BB699F
:10186C00DB43294913404B603B685B6803F48013EE
:10187C00002B06D0244B9A682349BB6913438B6019
:10188C0006E0214B9A68BB69DB431F4913408B6010
:10189C003B685B6803F40013002B06D01A4BDA6824
:1018AC001949BB691343CB6006E0174BDA68BB6977
:1018BC00DB4315491340CB607B6A01337B623B6889
:1018CC001A687B6A22FA03F3002B7FF4AFAE00BFD9
:1018DC0000BF2C37BD4680BC704700BF00003210E3
:1018EC000000311000002210000021100000121026
:1018FC0000001110001002400000014000080140DF
:10190C00000C0140001001400004014080B485B07F
:10191C0000AF78600B467B807B689A687B881340AD
:10192C00002B02D00123FB7301E00023FB73FB7B34
:10193C0018461437BD4680BC704780B483B000AFE6
:10194C0078600B467B8013467B707B78002B03D032
:10195C007A887B681A6103E07B881A047B681A61B9
:10196C0000BF0C37BD4680BC704780B485B000AF5B
:10197C0078600B467B807B68DB68FB607A88FB6851
:10198C0013401A04FB68D9437B880B401A437B68CD
:10199C001A6100BF1437BD4680BC704780B586B055
:1019AC0000AF78607B68002B01D101236CE27B686F
:1019BC001B6803F00103002B00F08780924B5B68DF
:1019CC0003F00C03042B0CD08F4B5B6803F00C035F
:1019DC00082B12D18C4B5B6803F48033B3F5803F3A
:1019EC000BD1894B1B6803F40033002B6CD07B6844
:1019FC005B68002B68D1012346E27B685B68B3F51A
:101A0C00803F06D1804B1B687F4A43F480331360C0
:101A1C002EE07B685B68002B0CD17B4B1B687A4AF1
:101A2C0023F480331360784B1B68774A23F48023AC
:101A3C0013601DE07B685B68B3F5A02F0CD1724B73
:101A4C001B68714A43F4802313606F4B1B686E4A0A
:101A5C0043F4803313600BE06B4B1B686A4A23F42E
:101A6C0080331360684B1B68674A23F48023136030
:101A7C007B685B68002B13D0FFF7B6FC386108E07D
:101A8C00FFF7B2FC02463B69D31A642B01D903233E
:101A9C00FAE15D4B1B6803F40033002BF0D014E02B
:101AAC00FFF7A2FC386108E0FFF79EFC02463B6999
:101ABC00D31A642B01D90323E6E1534B1B6803F4BF
:101ACC000033002BF0D100E000BF7B681B6803F0F3
:101ADC000203002B63D04C4B5B6803F00C03002B10
:101AEC000BD0494B5B6803F00C03082B1CD1464B05
:101AFC005B6803F48033002B16D1434B1B6803F057
:101B0C000203002B05D07B681B69012B01D001233C
:101B1C00BAE13D4B1B6823F0F8027B685B69DB0084
:101B2C00394913430B603AE07B681B69002B20D0CA
:101B3C00364B01221A60FFF757FC386108E0FFF7BB
:101B4C0053FC02463B69D31A022B01D903239BE1B8
:101B5C002D4B1B6803F00203002BF0D02A4B1B68A3
:101B6C0023F0F8027B685B69DB00274913430B60A9
:101B7C0015E0264B00221A60FFF736FC386108E0AE
:101B8C00FFF732FC02463B69D31A022B01D903231F
:101B9C007AE11D4B1B6803F00203002BF0D17B682C
:101BAC001B6803F00803002B3AD07B689B69002B61
:101BBC0019D0174B01221A60FFF716FC386108E0A8
:101BCC00FFF712FC02463B69D31A022B01D90323FF
:101BDC005AE10D4B5B6A03F00203002BF0D001209D
:101BEC0000F0A6FA1CE00A4B00221A60FFF7FCFB7F
:101BFC0038610FE0FFF7F8FB02463B69D31A022B62
:101C0C0008D9032340E100BF00100240000042420B
:101C1C00800442429E4B5B6A03F00203002BE9D125
:101C2C007B681B6803F00403002B00F0A6800023E4
:101C3C00FB75974BDB6903F08053002B0DD1944B54
:101C4C00DB69934A43F08053D361914BDB6903F01A
:101C5C008053BB60BB680123FB758E4B1B6803F480
:101C6C008073002B18D18B4B1B688A4A43F480730A
:101C7C001360FFF7B9FB386108E0FFF7B5FB0246CC
:101C8C003B69D31A642B01D90323FDE0814B1B68FC
:101C9C0003F48073002BF0D07B68DB68012B06D13A
:101CAC007B4B1B6A7A4A43F0010313622DE07B687D
:101CBC00DB68002B0CD1764B1B6A754A23F00103B1
:101CCC001362734B1B6A724A23F0040313621CE009
:101CDC007B68DB68052B0CD16D4B1B6A6C4A43F09F
:101CEC00040313626A4B1B6A694A43F001031362D3
:101CFC000BE0674B1B6A664A23F001031362644BCB
:101D0C001B6A634A23F0040313627B68DB68002BB5
:101D1C0015D0FFF769FB38610AE0FFF765FB024657
:101D2C003B69D31A41F28832934201D90323ABE0C9
:101D3C00574B1B6A03F00203002BEED014E0FFF7A5
:101D4C0053FB38610AE0FFF74FFB02463B69D31A9D
:101D5C0041F28832934201D9032395E04C4B1B6A24
:101D6C0003F00203002BEED1FB7D012B05D1484B78
:101D7C00DB69474A23F08053D3617B68DB69002B16
:101D8C0000F08180424B5B6803F00C03082B61D0A0
:101D9C007B68DB69022B46D13F4B00221A60FFF7B0
:101DAC0023FB386108E0FFF71FFB02463B69D31A9F
:101DBC00022B01D9032367E0354B1B6803F000733A
:101DCC00002BF0D17B681B6AB3F5803F08D1304BF8
:101DDC005B6823F400327B689B682D4913434B608E
:101DEC002B4B5B6823F474127B68196A7B685B6A03
:101DFC000B43274913434B60274B01221A60FFF713
:101E0C00F3FA386108E0FFF7EFFA02463B69D31AA0
:101E1C00022B01D9032337E01D4B1B6803F0007321
:101E2C00002BF0D02FE01C4B00221A60FFF7DCFADD
:101E3C00386108E0FFF7D8FA02463B69D31A022B47
:101E4C0001D9032320E0124B1B6803F00073002B15
:101E5C00F0D118E07B68DB69012B01D1012313E081
:101E6C000B4B5B68FB60FB6803F480327B681B6A7E
:101E7C009A4206D1FB6803F470127B685B6A9A4243
:101E8C0001D0012300E0002318461837BD4680BD61
:101E9C0000100240007000406000424280B584B0E7
:101EAC0000AF786039607B68002B01D10123D0E052
:101EBC006A4B1B6803F007033A689A4210D9674BC8
:101ECC001B6823F0070265493B6813430B60634BA7
:101EDC001B6803F007033A689A4201D00123B8E06B
:101EEC007B681B6803F00203002B20D07B681B6807
:101EFC0003F00403002B05D0594B5B68584A43F49C
:101F0C00E06353607B681B6803F00803002B05D06B
:101F1C00534B5B68524A43F460535360504B5B68BD
:101F2C0023F0F0027B689B684D4913434B607B6840
:101F3C001B6803F00103002B40D07B685B68012B0E
:101F4C0007D1474B1B6803F40033002B15D1012339
:101F5C007FE07B685B68022B07D1414B1B6803F069
:101F6C000073002B09D1012373E03D4B1B6803F078
:101F7C000203002B01D101236BE0394B5B6823F08A
:101F8C0003027B685B68364913434B60FFF72CFAFE
:101F9C00F8600AE0FFF728FA0246FB68D31A41F210
:101FAC008832934201D9032353E02D4B5B6803F035
:101FBC000C027B685B689B009A42EBD1274B1B6839
:101FCC0003F007033A689A4210D2244B1B6823F0A3
:101FDC00070222493B6813430B60204B1B6803F03C
:101FEC0007033A689A4201D0012332E07B681B68F0
:101FFC0003F00403002B08D0194B5B6823F4E06258
:10200C007B68DB68164913434B607B681B6803F0E5
:10201C000803002B09D0124B5B6823F460527B68D9
:10202C001B69DB000E4913434B6000F021F802469C
:10203C000B4B5B681B0903F00F030A49CB5C22FABC
:10204C0003F3094A1360094B1B681846FFF78AF91A
:10205C00002318461037BD4680BD00BF002002404B
:10206C0000100240C0290008240000202800002095
:10207C0090B48AB000AF2A4B3C1D0FCB84E80F0004
:10208C0040F201233B800023FB610023BB61002352
:10209C007B6200237B6100233B62224B5B68FB610C
:1020AC00FB6903F00C03042B02D0082B03D02DE0AA
:1020BC001D4B3B622DE0FB699B0C03F00F0307F1FA
:1020CC002802134413F8243C7B61FB6903F480332E
:1020DC00002B13D0134B5B685B0C03F0010307F16F
:1020EC002802134413F8283CBB617B690E4A02FB9F
:1020FC0003F2BB69B2FBF3F37B6204E07B690B4A2E
:10210C0002FB03F37B627B6A3B6202E0064B3B62A1
:10211C0000BF3B6A18462837BD4690BC704700BFCD
:10212C00B02900080010024000127A0000093D009E
:10213C0080B485B000AF78600A4B1B680A4AA2FBDA
:10214C0003235B0A7A6802FB03F3FB6000BFFB68A6
:10215C005A1EFA60002BF9D100BF00BF1437BD46E0
:10216C0080BC704724000020D34D621080B582B033
:10217C0000AF78607B68002B01D1012341E07B68C4
:10218C0093F83D30DBB2002B06D17B68002283F83C
:10219C003C207868FFF73CF87B68022283F83D20EE
:1021AC007B681A687B6804331946104600F06AFA9B
:1021BC007B68012283F846207B68012283F83E204D
:1021CC007B68012283F83F207B68012283F8402042
:1021DC007B68012283F841207B68012283F842202E
:1021EC007B68012283F843207B68012283F844201A
:1021FC007B68012283F845207B68012283F83D200F
:10220C00002318460837BD4680BD000080B485B059
:10221C0000AF78607B6893F83D30DBB2012B01D0C6
:10222C00012335E07B68022283F83D207B681B6824
:10223C00DA687B681B6842F00102DA607B681B6815
:10224C00164A934209D07B681B68B3F1804F04D0C7
:10225C007B681B68124A934211D17B681B689B6890
:10226C0003F00703FB60FB68062B10D07B681B6830
:10227C001A687B681B6842F001021A6007E07B68F1
:10228C001B681A687B681B6842F001021A60002305
:10229C0018461437BD4680BC704700BF002C014067
:1022AC000004004080B582B000AF78607B681B688A
:1022BC001B6903F00203022B22D17B681B68DB68CD
:1022CC0003F00203022B1BD17B681B686FF0020228
:1022DC001A617B6801221A777B681B689B6903F083
:1022EC000303002B03D0786800F0B1F905E078689F
:1022FC0000F0A4F9786800F0B3F97B6800221A7733
:10230C007B681B681B6903F00403042B22D17B68D8
:10231C001B68DB6803F00403042B1BD17B681B6870
:10232C006FF004021A617B6802221A777B681B68C3
:10233C009B6903F44073002B03D0786800F087F995
:10234C0005E0786800F07AF9786800F089F97B6824
:10235C0000221A777B681B681B6903F00803082BA3
:10236C0022D17B681B68DB6803F00803082B1BD1A8
:10237C007B681B686FF008021A617B6804221A776D
:10238C007B681B68DB6903F00303002B03D07868C0
:10239C0000F05DF905E0786800F050F9786800F01D
:1023AC005FF97B6800221A777B681B681B6903F056
:1023BC001003102B22D17B681B68DB6803F0100321
:1023CC00102B1BD17B681B686FF010021A617B68A5
:1023DC0008221A777B681B68DB6903F44073002BB7
:1023EC0003D0786800F033F905E0786800F026F93E
:1023FC00786800F035F97B6800221A777B681B68D7
:10240C001B6903F00103012B0ED17B681B68DB6891
:10241C0003F00103012B07D17B681B686FF00102ED
:10242C001A617868FEF750FF7B681B681B6903F024
:10243C008003802B0ED17B681B68DB6803F0800364
:10244C00802B07D17B681B686FF080021A6178685B
:10245C0000F067FA7B681B681B6903F04003402B94
:10246C000ED17B681B68DB6803F04003402B07D15F
:10247C007B681B686FF040021A61786800F0F9F80D
:10248C007B681B681B6903F02003202B0ED17B6833
:10249C001B68DB6803F02003202B07D17B681B68CB
:1024AC006FF020021A61786800F032FA00BF08372A
:1024BC00BD4680BD80B584B000AF786039607B6864
:1024CC0093F83C30012B01D10223B3E07B6801224D
:1024DC0083F83C207B68022283F83D207B681B68D4
:1024EC009B68FB60FB6823F07703FB60FB6823F4BD
:1024FC007F43FB607B681B68FA689A603B681B68CB
:10250C00B3F5005F3ED0B3F5005F00F28780B3F502
:10251C00805F00F08580B3F5805F7FD8702B1AD078
:10252C00702B7BD8602B50D0602B77D8502B3CD0A5
:10253C00502B73D8402B58D0402B6FD8302B64D0F5
:10254C00302B6BD8202B60D0202B67D8002B5CD085
:10255C00102B5AD062E07B6818683B6899683B681E
:10256C005A683B68DB6800F05CF97B681B689B6809
:10257C00FB60FB6843F07703FB607B681B68FA68C1
:10258C009A604EE07B6818683B6899683B685A68AB
:10259C003B68DB6800F045F97B681B689A687B68D0
:1025AC001B6842F480429A603BE07B6818683B6889
:1025BC0059683B68DB681A4600F0BCF87B681B68FE
:1025CC005021184600F013F92BE07B6818683B6823
:1025DC0059683B68DB681A4600F0DAF87B681B68C0
:1025EC006021184600F003F91BE07B6818683B6813
:1025FC0059683B68DB681A4600F09CF87B681B68DE
:10260C004021184600F0F3F80BE07B681A683B6831
:10261C001B681946104600F0EAF802E000BF00E023
:10262C0000BF7B68012283F83D207B68002283F881
:10263C003C20002318461037BD4680BD80B483B0C3
:10264C0000AF786000BF0C37BD4680BC704780B4CB
:10265C0083B000AF786000BF0C37BD4680BC7047BC
:10266C0080B483B000AF786000BF0C37BD4680BC2F
:10267C00704780B483B000AF786000BF0C37BD46A4
:10268C0080BC704780B485B000AF786039607B68DF
:10269C001B68FB607B68254A934207D07B68B3F1CB
:1026AC00804F03D07B68224A934208D1FB6823F009
:1026BC007003FB603B685B68FA681343FB607B68E4
:1026CC001A4A934207D07B68B3F1804F03D07B68E2
:1026DC00174A934208D1FB6823F44073FB603B68B4
:1026EC00DB68FA681343FB60FB6823F080023B68ED
:1026FC005B691343FB607B68FA681A603B689A68F5
:10270C007B68DA623B681A687B689A627B68074A66
:10271C00934203D13B681A697B681A637B68012278
:10272C005A6100BF1437BD4680BC7047002C014075
:10273C000004004080B487B000AFF860B9607A60E4
:10274C00FB681B6A7B61FB681B6A23F00102FB6858
:10275C001A62FB689B693B613B6923F0F0033B61A8
:10276C007B681B013A6913433B617B6923F00A03C5
:10277C007B617A69BB6813437B61FB683A699A6138
:10278C00FB687A691A6200BF1C37BD4680BC704773
:10279C0080B487B000AFF860B9607A60FB681B6AE0
:1027AC0023F01002FB681A62FB689B697B61FB6873
:1027BC001B6A3B617B6923F470437B617B681B0361
:1027CC007A6913437B613B6923F0A0033B61BB68CF
:1027DC001B013A6913433B61FB687A699A61FB6898
:1027EC003A691A6200BF1C37BD4680BC704780B482
:1027FC0085B000AF786039607B689B68FB60FB68D4
:10280C0023F07003FB603A68FB68134343F0070343
:10281C00FB607B68FA689A6000BF1437BD4680BCC9
:10282C00704780B487B000AFF860B9607A603B60E5
:10283C00FB689B687B617B6923F47F437B613B680E
:10284C001A027B681A43BB6813437A6913437B6192
:10285C00FB687A699A6000BF1C37BD4680BC704724
:10286C0080B485B000AF786039607B6893F83C30F9
:10287C00012B01D1022341E07B68012283F83C202B
:10288C007B68022283F83D207B681B685B68FB60D9
:10289C007B681B689B68BB60FB6823F07003FB6064
:1028AC003B681B68FA681343FB607B681B68FA681B
:1028BC005A607B681B68144A934209D07B681B687A
:1028CC00B3F1804F04D07B681B68104A93420CD143
:1028DC00BB6823F08003BB603B685B68BA6813433A
:1028EC00BB607B681B68BA689A607B68012283F8BE
:1028FC003D207B68002283F83C20002318461437C7
:10290C00BD4680BC704700BF002C01400004004055
:10291C0080B483B000AF786000BF0C37BD4680BC7C
:10292C00704780B483B000AF786000BF0C37BD46F1
:10293C0080BC704770B500260C4D0D4C641BA41068
:10294C00A64209D100F022F800260A4D0A4C641B5D
:10295C00A410A64205D170BD55F8043B984701362A
:10296C00EEE755F8043B98470136F2E7D02900080A
:10297C00D0290008D0290008D429000803460244B5
:10298C00934200D1704703F8011BF9E7F8B500BF7B
:10299C00F8BC08BC9E467047F8B500BFF8BC08BC34
:0429AC009E4670478C
:1029B00002030405060708090A0B0C0D0E0F101080
:1029C00000000000000000000102030406070809DF
:0429D00031010008C9
:0429D4000D010008E9
:1029D80001000000020000000300000004000000E5
:1029E8000A000000050000000300000002000000CB
:1029F8000A0000000024F40010000000010000009C
:04000005080012F9E4
:00000001FF
